:107000005FC0000078C0000076C0000074C00000BF
:1070100072C0000070C000006EC000006CC00000B4
:107020006AC0000068C00000D4C4000064C0000052
:1070300062C0000060C000005EC000005CC00000D4
:107040005AC000009CC0000056C0000054C00000A0
:1070500052C0000050C000004EC000004CC00000F4
:107060004AC0000048C0000046C0000044C0000004
:1070700042C0000040C000003EC000003CC0000014
:107080003AC0000038C0000036C0000034C0000024
:1070900032C0000030C000002EC000002CC0000034
:1070A0002AC0000028C0000026C00000583E713EE3
:1070B000183F713E183FA93ECB3E183FEB3EFD3EC8
:1070C00011241FBECFEFDAE0DEBFCDBF11E0A0E09C
:1070D000B1E0EAEBFEE702C005900D92A23BB107DA
:1070E000D9F721E0A2EBB1E001C01D92AB3CB207A1
:1070F000E1F71BD3E0C684CF84E08093E900809160
:10710000E80085FD0DC08091E8008B778093E80052
:107110008091E80082FDF3CF8EB38111F9CF02C0D8
:107120008091F100089593E09093E9009091E80038
:1071300095FF0AC08093F1005D9884E690E09093FB
:10714000B9018093B80108959091E8009E779093DB
:10715000E8009091E80090FDEDCF9EB39111F9CF3A
:107160000895F89410926F001092810081E085BF1D
:1071700015BE47985D9A289A0C94000008951F92B6
:107180000F920FB60F9211242F938F939F93EF932B
:10719000FF9310928500109284008091B801909125
:1071A000B901009741F001979093B9018093B8011C
:1071B000892B09F45D9A8091B6019091B7010097EF
:1071C00041F001979093B7018093B601892B09F4A0
:1071D000289A8091B2019091B30101969093B301E6
:1071E0008093B201E0E0F0E085919491019649F03E
:1071F0008091B4019091B50101969093B50180936F
:10720000B401FF91EF919F918F912F910F900FBE3D
:107210000F901F90189542E061EC82E057D342E155
:1072200061E883E053D342E160E884E04FC380919A
:10723000C301982F9F77913239F59091C401903214
:1072400091F0913209F5813AF9F48091E800877F55
:107250008093E80067E070E082E091E06BD4809179
:10726000E8008B770FC0813279F48091E800877F46
:107270008093E80067E070E082E091E0B8D480910C
:10728000E8008E778093E80008956F927F928F9246
:107290009F92AF92BF92CF92DF92EF92FF920F93A5
:1072A0001F93CF93DF9384E08093E9008091E800FF
:1072B00082FF2CC2289884E690E09093B7018093D7
:1072C000B6011ADFC82F853481F48CE49DE19093D8
:1072D000B5018093B40107B600FCFDCFF999FECF4C
:1072E00081E180935700E89503C0843521F404DFE1
:1072F0008DE019DFE2C18C34D9F38035C9F38437CE
:1073000021F484E410DF80E0F4CF813611F489E5C4
:10731000F0CF813491F4F0DEC82FEEDE90E0880FDC
:10732000991F2C2F30E0322F2227330F822B932BE3
:10733000092E000CAA0BBB0B94C1803711F483E516
:10734000D8CF833549F4C9EAD1E01C2F195F899160
:10735000EADE1C13FCCFB1C1863521F481E3E3DE04
:1073600080E3C7CF833731F487E8DDDE85E9DBDEF4
:107370008EE1BFCF8536B9F4E0E0F0E083E095E040
:1073800080935700E89507B600FCFDCF9093570017
:10739000E89507B600FCFDCFE058FF4FE11520E768
:1073A000F20771F7A5CF823719F4E1E0F0E00EC0E3
:1073B000863419F4E0E0F0E009C08E3419F4E3E01B
:1073C000F0E004C0813539F4E2E0F0E089E0809338
:1073D000570084918ECF823631F489E5A4DE80E0B7
:1073E000A2DE80E886CF823419F0873609F0D1C05A
:1073F0001092B5011092B4017FDE082F7DDED82FE8
:107400007BDE182F8BEB810F823010F08FE371CF72
:107410002D2F30E0302B10926F00C73609F043C09B
:1074200081E180935700E895E90100E0BB24B39423
:10743000209709F4AAC0C090BB01D090BC01E09095
:10744000BD01F090BE011634B9F4E02FF0E0EC2954
:10745000FD29849168DE002369F082E0C80ED11C0A
:10746000E11CF11CC092BB01D092BC01E092BD01B5
:10747000F092BE010B2515C0D701C601B695A795A0
:107480009795879502D54FDEE2E0CE0ED11CE11C28
:10749000F11CC092BB01D092BC01E092BD01F09200
:1074A000BE012197C5CF8090BB019090BC01A090F8
:1074B000BD01B090BE01163441F483E0F401809325
:1074C0005700E89507B600FCFDCFE901712C00E0FC
:1074D00066246394209709F44CC0163431F50023D8
:1074E00001F1C090BB01D090BC01E090BD01F090D3
:1074F000BE0102DE272D30E0382BF6010901609233
:107500005700E8951124F2E0CF0ED11CE11CF11CCC
:10751000C092BB01D092BC01E092BD01F092BE01CD
:1075200002C0EADD782E062522C0E6DD682F8091B4
:10753000BB019091BC01A091BD01B091BE01B69577
:10754000A79597958795A9D48091BB019091BC018F
:10755000A091BD01B091BE010296A11DB11D809305
:10756000BB019093BC01A093BD01B093BE012197D4
:10757000B1CF163441F485E0F40180935700E895CB
:1075800007B600FCFDCF8DE0CEDD82E080936F007A
:1075900094C0833471F4C091BB01D091BC01ACDDC7
:1075A00090E021E0FE010C0120935700E8951124A2
:1075B0009FCE833601F5C090BB01D090BC01E09016
:1075C000BD01F090BE0198DDF601E16090E021E0A0
:1075D0000C0120935700E8951124F2E0CF0ED11C46
:1075E000E11CF11CC092BB01D092BC01E092BD0134
:1075F000F092BE017DCE8D3661F4E091BB01F09139
:10760000BC0185E080935700E89507B600FCFDCFEC
:107610006FCE823551F4E091BB01F091BC01C59170
:10762000D4918D2F80DD8C2F64CE843419F564DDE8
:10763000682F8091BB019091BC01A091BD01B091D8
:10764000BE01B695A7959795879527D48091BB01E4
:107650009091BC01A091BD01B091BE010296A11D07
:10766000B11D8093BB019093BC01A093BD01B09369
:10767000BE013ECE8436F1F4C090BB01D090BC0177
:10768000E090BD01F090BE01D701C601B695A79567
:1076900097958795FAD347DD22E0C20ED11CE11CF5
:1076A000F11CC092BB01D092BC01E092BD01F092EE
:1076B000BE0103C08B3109F0A9CE83E08093E900BD
:1076C0009091E8008091E8008E778093E80095FD26
:1076D00011C08091E80080FD04C08EB38111F9CF04
:1076E00015C08091E8008E778093E80003C08EB3C8
:1076F000882361F08091E80080FFF9CF84E08093D7
:10770000E9008091E8008B778093E800DF91CF91CA
:107710001F910F91FF90EF90DF90CF90BF90AF90AF
:107720009F908F907F906F900895CF9390910008D5
:107730001092000884B714BE0FB6F894A895209153
:107740006000286120936000109260000FBE40E846
:1077500020E00FB6F89440936100209361000FBEC3
:1077600021E025BF32E035BF3F9A209A559A4093D9
:1077700061001092610047985D9A289A10928900E2
:107780004AEF4093880030936F0033E030938100DC
:10779000E0E0F0E0459154914F3F5F4F11F02093AE
:1077A000BA0181FF20C0209100019217E1F02093DF
:1077B0000008789480910101882339F08091B2010A
:1077C0009091B3018F3E9240C8F310920101F8945A
:1077D0001092000881E0809301018091BA01882312
:1077E00071F0BFDC0CC080FF04C02091BA012111F0
:1077F000F8CF83FF04C0809100019813EECFD1D061
:1078000078941092B5011092B401CEEF80910101ED
:10781000882301F13ADD22D38091B4019091B50122
:1078200081349F4110F0109201018091BF0190912D
:10783000C00101969093C0018093BF01292F97FF4B
:1078400002C02C2F291B220F281710F44798DECFD7
:10785000479ADCCF8091E00081608093E00081DC7A
:1078600080E090E0CF910895292F30E0223031055B
:1078700059F02330310569F021303105F9F482E106
:1078800090E027E931E01EC08EE390E029E531E089
:1078900019C0882349F0813061F0823079F48AE29E
:1078A00090E029E031E00EC084E090E025E531E091
:1078B00009C08EE190E025E331E004C080E090E073
:1078C00020E030E0FA013183208308958093E900BD
:1078D000EBEEF0E0808181608083EDEEF0E01082DD
:1078E0006093EC0040838091EE00881F8827881FFA
:1078F00008958091C30187FF0FC08091E80082FD49
:1079000004C08EB38111F9CF10C08091E8008B774D
:107910000AC08EB3882349F08091E80080FFF9CF38
:107920008091E8008E778093E80008950F931F936D
:10793000CF93DF9341D048D0C8EDD0E088818F77D6
:10794000888388818068888388818F7D888319BC3B
:107950001EBA1092C10100EE10E0F80180818B7F09
:10796000808388818160888342E060E080E0AEDFD0
:10797000E1EEF0E080818E7F8083E2EEF0E08081B6
:1079800081608083808188608083F80180818E7F20
:107990008083888180618883DF91CF911F910F91CF
:1079A0000895E7EDF0E08081816080838AE482BF02
:1079B00081E08093C201BACFE8EDF0E080818E7F54
:1079C00080831092E20008951092DA001092E10094
:1079D00008951F920F920FB60F9211242F933F9389
:1079E0004F935F936F937F938F939F93AF93BF93C7
:1079F000EF93FF938091DA0080FF1BC08091D80045
:107A000080FF17C08091DA008E7F8093DA0080912A
:107A1000D90080FF0BC080E189BD82E189BD09B436
:107A200000FEFDCF81E08EBB18D203C019BC1EBA88
:107A300014D28091E10080FF17C08091E20080FFA6
:107A400013C08091E2008E7F8093E2008091E2007B
:107A500080618093E2008091D80080628093D8009A
:107A600019BC85E08EBBF9D18091E10084FF2CC068
:107A70008091E20084FF28C080E189BD82E189BD58
:107A800009B400FEFDCF8091D8008F7D8093D8008F
:107A90008091E1008F7E8093E1008091E2008F7EF3
:107AA0008093E2008091E20081608093E200809107
:107AB000C101811106C08091E30087FD02C081E011
:107AC00001C084E08EBBC9D18091E10083FF21C059
:107AD0008091E20083FF1DC08091E100877F809349
:107AE000E10082E08EBB1092C1018091E1008E7FA7
:107AF0008093E1008091E2008E7F8093E20080918C
:107B0000E20080618093E20042E060E080E0DEDE3F
:107B1000A4D1FF91EF91BF91AF919F918F917F91F0
:107B20006F915F914F913F912F910F900FBE0F90EA
:107B30001F9018952091C9013091CA012617370767
:107B400048F06115710539F42091E8002E772093F3
:107B5000E80001C0B90140E061157105A1F12EB343
:107B6000222309F440C0253009F43FC02091E800E9
:107B700023FD37C02091E80022FD2DC02091E800B0
:107B800020FFEACF4091F3002091F20030E0342B47
:107B9000FC01CF016115710559F02830310540F421
:107BA00081918093F100615071092F5F3F4FF1CFB8
:107BB00041E02830310509F040E02091E8002E77BF
:107BC0002093E800C9CF4111CACF05C08EB38823E6
:107BD00051F0853051F08091E80082FFF7CF80E0CE
:107BE000089581E0089582E0089583E00895611585
:107BF000710529F42091E8002B772093E800FC011F
:107C00006115710531F18EB3882359F1853059F131
:107C10008091E80083FD23C08091E80082FFF0CFCF
:107C20002091F3008091F20090E0922B892B31F0AB
:107C30008091F10081936150710991F78091E80082
:107C40008B778093E800DCCF8EB3882351F08530AA
:107C500051F08091E80080FFF7CF80E0089581E047
:107C6000089582E0089583E008950F931F93CF93C2
:107C7000DF9300D0CDB7DEB7E3ECF1E088E08E0F04
:107C80009091F10091938E13FBCFD1DA8091E800AF
:107C900083FFCEC08091C3019091C401492F50E071
:107CA0004A30510508F0C4C0FA01EA5AF74CE7C05F
:107CB000823809F0BDC08091C70187708093E900C8
:107CC0008091EB001092E9009091E800977F9093EB
:107CD000E80085FB882780F98093F1001092F1007D
:107CE00085C0282F2D7F09F0A3C0823009F0A0C0E5
:107CF0008091C501811127C08091C701877009F467
:107D000097C08093E9002091EB0020FF1CC09330C6
:107D100021F48091EB00806214C09091EB0090619F
:107D20009093EB0021E030E0A90102C0440F551F01
:107D30008A95E2F74093EA001092EA008091EB0006
:107D400088608093EB001092E9008091E800877FC3
:107D500050C081116DC01091C5011F770FB7F89405
:107D60008091E800877F8093E800C3DD8091E80080
:107D700080FFFCCF8091E3008078812B8093E3002B
:107D800080688093E300111102C082E001C083E0AB
:107D90008EBB0FBF4DC08058823008F049C0AE0185
:107DA0004F5F5F4F6091C7018091C5019091C601FF
:107DB0005BDDBC01892B09F43BC09091E800977F03
:107DC0009093E80089819A81B5DE8091E8008B77F5
:107DD0008093E8002DC0803859F58091E800877FB6
:107DE0008093E8008091C1018093F1008091E800C8
:107DF0008E778093E8007DDD1BC0811119C09091C2
:107E0000C5019230A8F48091E800877F8093E80054
:107E10009093C1016EDD8091C101811106C08091F6
:107E2000E30087FD02C081E001C084E08EBBF3D98E
:107E30008091E80083FF0AC08091EB00806280930C
:107E4000EB008091E800877F8093E8000F900F900F
:107E5000DF91CF911F910F9108950895CF938EB325
:107E6000882359F0C091E900C7701092E900809111
:107E7000E80083FDFADEC093E900CF910895EE0F8C
:107E8000FF1F0590F491E02D0994F999FECF92BD62
:107E900081BDF89A992780B50895262FF999FECFCC
:107EA0001FBA92BD81BD20BD0FB6F894FA9AF99A17
:0A7EB0000FBE01960895F894FFCF6D
:107EBA007701000000000000082A0355006E006BDD
:107ECA00006E006F0077006E002000200020002066
:107EDA000020002000200020002000200020002098
:107EEA0000200000001E03550053004200200049F4
:107EFA00004F00200062006F0061007200640020E1
:107F0A0000200000000403090409023E00020100E7
:107F1A008032090400000102020100052400100158
:107F2A00042402040524060001070582030800FF51
:107F3A0009040100020A00000007050402100001FA
:107F4A00070583021000011201100102000008B0A7
:107F5A002C04000100020100014341544552494EDC
:027F6A004100D4
:040000030000700089
:00000001FF
